S021000074776F5F7669727475616C5F776865656C5F6175746F636F64652E6D6F7479
S113000000400020B5040000FD040000FD040000D1
S1130010FD040000FD040000FD04000000000000D9
S1130020000000000000000000000000FD040000CB
S1130030FD04000000000000FD040000FD040000B9
S1130040FD040000FD040000FD040000FD040000A8
S1130050FD040000FD040000FD040000FD04000098
S1130060FD040000FD040000FD040000FD04000088
S1130070FD040000FD040000FD040000FD04000078
S1130080FD040000FD040000FD040000FD04000068
S1130090FD040000FD040000FD040000FD04000058
S11300A0FD040000FD040000FD040000FD04000048
S11300B0FD040000FD040000FD040000FD04000038
S11300C0FD040000FD040000FD040000FD04000028
S11300D0FD040000FD040000FD040000FD04000018
S11300E0FD040000FD040000FD040000FD04000008
S11300F0FD040000FD040000FD040000FD040000F8
S11301001B420000FD040000FD040000FD0400008B
S1130110FD040000FD040000FD040000FD040000D7
S1130120FD040000FD040000FD040000FD040000C7
S1130130FD040000FD040000FD040000FD040000B7
S1130140FD040000FD040000FD040000FD040000A7
S1130150FD040000FD040000FD040000FD04000097
S1130160FD040000FD040000FD040000FD04000087
S1130170FD040000FD040000FD040000FD04000077
S1130180FD040000FD040000FD040000FD04000067
S1130190FD040000FD040000FD040000FD04000057
S11301A0FD040000FD040000FD040000FD04000047
S11301B0FD040000FD040000FD040000FD04000037
S11301C0FD040000FD040000FD040000D52E000025
S11301D0E12E0000ED2E0000F92E0000FD040000C9
S11301E0FD040000052F0000112F00001D2F00004A
S11301F0292F0000FD040000FD040000352F00003D
S1130200412F00004D2F0000592F0000FD04000075
S1130210FD040000652F0000712F00007D2F0000F9
S1130220892F0000FD040000FD040000FD0400000F
S1130230FD040000FD040000FD040000FD040000B6
S1130240FD040000FD040000FD040000FD040000A6
S1130250FD040000FD040000FD040000FD04000096
S1130260FD040000FD040000FD040000FD04000086
S1130270FD040000FD040000FD040000FD04000076
S1130280FD040000FD040000FD040000FD04000066
S1130290FD040000FD040000FD040000FD04000056
S11302A0FD040000FD040000FD040000FD04000046
S11302B0FD040000FD040000FD040000FD04000036
S11302C0FD040000FD040000FD040000FD04000026
S11302D0FD040000FD040000FD040000FD04000016
S11302E0FD040000FD040000FD040000FD04000006
S11302F0FD040000FD040000FD040000FD040000F6
S1130300FD040000FD040000FD040000FD040000E5
S1130310FD040000FD040000FD040000FD040000D5
S1130320FD040000FD040000FD040000FD040000C5
S1130330FD040000FD040000FD040000FD040000B5
S1130340FD040000FD040000FD040000FD040000A5
S1130350FD040000FD040000FD040000FD04000095
S1130360FD040000FD040000FD040000FD04000085
S1130370FD040000FD040000FD040000FD04000075
S1130380FD040000FD040000FD040000FD04000065
S1130390FD040000FD040000FD040000FD04000055
S11303A0FD040000FD040000FD040000FD04000045
S11303B0FD040000FD040000FD040000FD04000035
S11303C0FD040000FD040000FD040000FD04000025
S11303D0FD040000FD040000FD040000FD04000015
S11303E0FD040000FD040000FD040000FD04000005
S11303F0FD040000FD040000FD040000FFFFFFFFFA
S1130400FFFFFFFFFFFFFFFFFFFFFFFFFE7FFFFF79
S1130410044B05481B1A062B02D9044B03B1184799
S1130420704700BF6799FF1F6499FF1F0000000019
S113043005490648091A891001EBD171491002D007
S1130440034B03B1184770476499FF1F6499FF1F5A
S11304500000000010B5064C237843B9FFF7D8FF1D
S1130460044B13B10448AFF300800123237010BD83
S113047000000020000000004060000008B5084BA8
S11304801BB108490848AFF300800848036813B952
S1130490BDE80840CCE7064B002BF9D09847F7E7B6
S11304A00000000004000020406000006099FF1F6D
S11304B00000000072B64FF000014FF000024FF050
S11304C000034FF000044FF000054FF000064FF01A
S11304D00007B846B946BA46BB46BC4604488546FA
S11304E0044880470448804762B603F0D7FEFEE71D
S11304F000400020294F0000514E0000FFF7FEBFCE
S1130500074B5B69DBB2042B06D0802B06D0012B92
S11305100CBF01200420704702207047032070475D
S113052000E00740044BD3F8003113F0807F1ABF7A
S1130530024B186800207047004006405400002019
S113054010B584B00B4600293BD0444AD2F80021B0
S113055012F0007F7DD1414AD2F8001121F400014C
S1130560C2F800114FF08061C2F8001100213C4A2A
S11305701160002870D05A7A120202F4E062197AEB
S113058001F007010A433548C0F80421DA79120161
S113059002F030029979C90001F008010A4359793F
S11305A0890001F004010A43C0F808211A79012ADC
S11305B029D0E2B1022A32D01A68294B1A60294C98
S11305C03BE000238DF804308DF80C3001228DF8C7
S11305D008208DF809208DF805208DF806300223B7
S11305E08DF8073004AB204A43F8102DADE71A7B91
S11305F0002A14BF4FF40002002242F001021749FE
S1130600C1F80021D8E71A7B002A14BF4FF4000276
S1130610002242F001121149C1F80021CCE71A7BF3
S1130620002A14BF4FF403024FF4403242F0010297
S11306300A49C1F80021BFE7013CFFF773FF18B96D
S1130640002CF9D1032005E0002C14BF0020032066
S113065000E0022004B010BD0020FBE7004006408B
S11306605400002088E7300000127A00084BD3F8C9
S1130670003213F0807F09D0054BD3F8083203F021
S11306800103002B034808BF002070470020704777
S11306900040064000127A0010B582B00B460029D3
S11306A038D02D4AD2F8002212F0007F4FD12A4AC6
S11306B0D2F8001221F40001C2F800120021C2F89D
S11306C00012002846D09A78120202F4E0625978A7
S11306D001F007010A432049C1F804221A7802F004
S11306E00102C1F8082259799A791B79002B14BFA9
S11306F003230123002914BF042100210B43002AF2
S113070014BF4FF4000200221343134AC2F800320C
S1130710642410E000238DF8043001228DF80520B4
S11307208DF806308DF801208DF8022002AB03F815
S1130730082DB6E7013CFFF799FF18B9002CF9D151
S1130740032005E0002C14BF0020032000E0022059
S113075002B010BD0020FBE700400640054BD3F873
S1130760003313F0807F1DBF024BD3F808330248D7
S11307700020704700400640006CDC0210B582B0D7
S11307800B46002932D0294AD2F8002312F0007F08
S113079047D1264AD2F8001321F40001C2F800130D
S11307A04FF08061C2F8001300283DD09A781202FD
S11307B002F4E062597801F007010A431B49C1F8C9
S11307C004231A7802F00302C1F808239A795B79AA
S11307D0002B14BF01230923002A14BF4FF4000285
S11307E000221343C1F8003314240EE001238DF8D2
S11307F0053000228DF806208DF801308DF8023086
S113080002AB03F8082DBEE7013CFFF7A7FF18B9B8
S1130810002CF9D1032005E0002C14BF0020032094
S113082000E0022002B010BD0020FBE700400640BB
S113083008B50F4BD3F8003613F0807F02D10023A4
S1130840184608BDFFF76EFE03460028F8D0084995
S1130850D1F80826C2F302220132B0FBF2F3D1F838
S11308600826C2F30442103203FB02F35B08E7E7F5
S11308700040064010B584B00C4699B13D4BD3F806
S1130880003613F0007F71D13A4BD3F8002622F4DE
S11308900002C3F800264FF08062C3F8002698B91E
S11308A0002064E000238DF804308DF80B30012221
S11308B08DF808208DF809208DF805308DF8063064
S11308C08DF8073001ACD9E7FFF72CFE63791B02E2
S11308D003F4E063227902F0070213432549C1F8C7
S11308E0043663781B0203F4E063A278120402F472
S11308F0F8121343C1F808362378012B16D04BB1F4
S1130900022B1FD04FF47A74FFF792FF48BB34B325
S1130910013CF9E7E379002B14BF4FF400030023F3
S113092043F00103134AC2F80036EBE7E379002BE6
S113093014BF4FF40003002343F001130D4AC2F81F
S11309400036DFE7E379002B14BF4FF403034FF4C1
S1130950403343F00103074AC2F80036D2E70320CC
S113096005E0002C14BF0020032000E0022004B0A6
S113097010BD00BF004006402DE9F04180460D4601
S11309808C7801344E7806FB04460F7807FB044745
S1130990CB78013B052B1CD8DFE803F00312151BB1
S11309A01B18FFF7BFFD0009B8F1020F4AD0B8F1D8
S11309B0030F7CD0B8F1010F0DD00020BDE8F08109
S11309C0FFF754FEEFE7FFF7C9FEECE7FFF730FF50
S11309D0E9E70020E7E7EA7802EB42015D4B53F8D0
S11309E021301B0904FB03F4A04200F298800B465B
S11309F0584901EB83035B681B0906FB03F6B0420D
S1130A0000F2908002EB420301EB83039B681B0915
S1130A1007FB03F7B84200F28880AB781B0403F4A9
S1130A207023120602F0706213432A7802F00F0258
S1130A3013436A781201D2B21343474A5361002028
S1130A40BDE8F081EA7802EB4201424B03EB8103FB
S1130A505B6D1B0904FB03F4A04269D80B463D49B6
S1130A6001EB83039B6D1B0906FB03F6B04262D8BE
S1130A7002EB420301EB8303DB6D1B0907FB03F766
S1130A80B8425BD8AB781B0403F47023120602F05F
S1130A90706213432A7802F00F0213436A7812013A
S1130AA0D2B213432C4A93610020BDE8F081EB7865
S1130AB003EB4301274A02EB8102D2F8A820120972
S1130AC004FB02F4A0423CD80A46224901EB82020C
S1130AD0D2F8AC20120906FB02F6B04234D803EB7C
S1130AE0430201EB8202D2F8B020120907FB02F79D
S1130AF0B8422CD8AA78120402F470221B0603F020
S1130B00706313432A7802F00F0213436A781201C8
S1130B10D2B21343104AD3610020BDE8F081012012
S1130B20BDE8F0810120BDE8F0810120BDE8F0813D
S1130B300120BDE8F0810120BDE8F0810120BDE87D
S1130B40F0810120BDE8F0810120BDE8F0810120A1
S1130B50BDE8F081CC5D00000040064038B5054694
S1130B60FFF7CEFC2946FFF707FF044658B9E8789B
S1130B700A220849013A0B69C3F30363984204D07B
S1130B80002AF7D10324204638BD002A08BF0324D5
S1130B90F9E700BF0040064010B504461B4B1B6933
S1130BA0C3F30363013B052B1DD8DFE803F00313F4
S1130BB0161C1C19FFF7B6FC144B1B69C3F3034343
S1130BC00133B0FBF3F0012C0FD0ECB1022C14D0A4
S1130BD0002010BDFFF74AFDEEE7FFF7BFFDEBE78E
S1130BE0FFF726FEE8E70020E6E7084B1B69C3F39E
S1130BF003130133B0FBF3F010BD044B1B6903F086
S1130C000F030133B0FBF3F010BD00BF00400640FA
S1130C1008B50F4B1B6AC3F30363062B15D8DFE833
S1130C2003F004080B0E141411000220FFF7B4FFA4
S1130C3008BDFFF777FC08BDFFF718FD08BDFFF7F7
S1130C408DFD08BDFFF7F4FD08BD002008BD00BF01
S1130C500040064008B541B1012931D000200246C8
S1130C6010B1431E22FA03F008BD0438032852D8F9
S1130C70DFE800F00B02141DFFF770FD0246294B5C
S1130C80D3F8040300F00700EAE7FFF7EFFC02469D
S1130C90244BD3F8040200F00700E1E7FFF742FC1D
S1130CA00246204BD3F8040100F00700D8E7FFF711
S1130CB0BFFD02461B4BD3F8040600F00700CFE744
S1130CC0043803282AD8DFE800F00B02141DFFF7CC
S1130CD045FD0246134BD3F80403C0F30220BFE7DB
S1130CE0FFF7C4FC02460F4BD3F80402C0F3022002
S1130CF0B6E7FFF717FC02460A4BD3F80401C0F32A
S1130D000220ADE7FFF794FD0246064BD3F8040634
S1130D10C0F30220A4E700200246A1E70020024617
S1130D209EE700BF0040064008B5114B1B69C3F3A2
S1130D300113032B19D8DFE803F002071013002175
S1130D400620FFF787FF08BD094B186900F0020071
S1130D50002818BF4FF4FA4008BD064B186808BDB8
S1130D6000210520FFF776FF08BD002008BD00BF65
S1130D70008004405800002038B51D4B03EB4000B0
S1130D80B0F8FC309B0003F1804303F5CA231D68CF
S1130D90C5F3C0051C6804F00704AC4225D31868E9
S1130DA0C0F3807010B31B68C3F30263013B052BCF
S1130DB019D8DFE803F0030C101818140620FFF705
S1130DC049FF0134B0FBF4F005FB000038BD0420FA
S1130DD0FFF740FFF5E70520FFF73CFFF1E70720A9
S1130DE0FFF738FFEDE70020EBE7002038BD00BF38
S1130DF0CC5D00000F4B1B69C3F38103022B07D0AA
S1130E00032B0ED0002B0CBF4FF4FA300020704798
S1130E10084B186900F00200002818BF4FF4FA408C
S1130E207047044B186900F00200002818BF4FF403
S1130E30FA4070470080044008B5244B5B6813F403
S1130E40006F40D0214B5B68C3F303130E2B09D80A
S1130E50DFE803F00A080D081208171C20252F08E4
S1130E6029082C00002026E0FFF7D2FE23E0012110
S1130E700620FFF7EFFE1EE001210420FFF7EAFE43
S1130E8019E001210520FFF7E5FE14E00020FFF73B
S1130E9083FE10E001210720FFF7DCFE0BE00120B8
S1130EA0FFF77AFE07E0FFF7A5FF04E0FFF73CFF3A
S1130EB001E04FF4FA30054B5B68C3F302230133BE
S1130EC0B0FBF3F008BD002008BD00BF0080044063
S1130ED030B583B00546FFF7ABFC88B1062D56D07C
S1130EE006238DF8073002238DF8063001238DF890
S1130EF0053002A800F8043DFFF730FE044600E088
S1130F000124FFF72BFC10B1032D4AD074B9FFF76D
S1130F1009FB10B1012D4DD0D4B9FFF7A7FB10B1D7
S1130F20022D00D01CBB204603B030BD03238DF836
S1130F30073000228DF8062001228DF8052002A832
S1130F4000F8043DFFF70AFE0446E0E70124E3E766
S1130F5001238DF8073000228DF806208DF8053026
S1130F6002A800F8043DFFF7F9FD0446D5E7022383
S1130F708DF8073000238DF806308DF8053002A86F
S1130F80012300F8043DFFF7E9FD0446CBE7FFF732
S1130F90E5FB0028CAD1FFF7C5FA0028D6D1012401
S1130FA0BBE7FFF7BFFA0028B6D1FFF75FFB0028C5
S1130FB0B8D1B8E7FFF75AFB0028B3D1B3E7174B12
S1130FC01B69C3F30363013B052B06D8DFE803F079
S1130FD0031D200505230123C37010490A69104B22
S1130FE0C2F303121A4492F89C2142700A69C2F3B4
S1130FF003421A4492F89C2182700A6902F00F029B
S1131000134493F89C31037070470223C370E4E7E0
S11310100323C370E1E70623C370DEE70040064004
S1131020CC5D000001383F282DD8DFE800F02A28E5
S11310302C262C2C2C242C2C2C2C2C2C2C222C2C04
S11310402C2C2C2C2C2C2C2C2C2C2C2C2C202C2CE8
S11310502C2C2C2C2C2C2C2C2C2C2C2C2C2C2C2CCC
S11310602C2C2C2C2C2C2C2C2C2C2C2C2C2E0620EC
S11310707047052070470420704703207047022002
S11310807047012070470020704707207047F0B573
S1131090A1B028B304460646002800F0FE80644B45
S11310A01B69C3F30363032B00F0C880FFF756FBEF
S11310B0002800F0B48003238DF8073000228DF857
S11310C0062001228DF8052020A800F87C3DFFF7BA
S11310D045FD0546002800F0B180284621B0F0BD4A
S11310E001238DF80B3000228DF80C208DF80D3083
S11310F08DF80E208DF808308DF809308DF80A30FF
S11311008DF816308DF814308DF815208DF80F20D9
S11311108DF810308DF811308DF838300D928DF82F
S11311202530444906918DF81C208DF824208DF833
S11311301D308DF81E2002208DF81F008DF8203000
S11311408DF821308DF830308DF828208DF82F203F
S11311508DF829200C218DF82A108DF82B208DF87C
S11311602C308DF82D308DF83D3003218DF83C1056
S11311708DF84B308DF841108DF840208DF83F30BC
S11311808DF83E308DF845008DF844308DF84320BD
S11311908DF8421006208DF849008DF848208DF80E
S11311A047308DF8461024491E9120211D918DF859
S11311B04C308DF84D208DF84E208DF84F208DF851
S11311C050308DF854308DF853308DF852208DF80E
S11311D051208DF868308DF869308DF86A308DF8BB
S11311E06B308DF86C308DF86D308DF873308DF870
S11311F058301792189219928DF86E308DF86F301E
S11312008DF870208DF871208DF872208DF87C3067
S11312108DF87D308DF87E2002AE34463FE7002104
S11312200120FFF7ABFA054600287FF456AF42E7EA
S11312300040064000127A000094FF1F3146E07817
S1131240FFF72AFA0546002800F02881FFF758F92D
S1131250022800F05D81032800F05D81012800F080
S11312603781002D7FF439AF94F8303013B1E26A3E
S1131270AA4B1A6094F8353053B1A9490A6A22F08E
S1131280706294F834301B0603F0706313430B62EE
S113129094F84330002B40F0AA8114F16C0F3AD03B
S11312A0236F002B37D0E36E002B34D000219D48F0
S11312B09D4D01EB8102236F9B5C00EB4303B3F86C
S11312C0FC309B0003F1804303F5CA231E6826F01B
S11312D080461E60236F9F189E5CBB781B0603F03C
S11312E0E063FA78D20002F0080213433A7902F07C
S11312F0070213437A78002A14BF4FF08042002279
S1131300134300EB4606B6F8FC2045F822300131C1
S1131310E36E9942CDD394F84430C3B194F8463087
S113132094F847208149496821F47F6194F8450085
S1131330002814BF4FF4006000201B01DBB212022E
S113134002F4E06213430B430343784A536094F876
S11313504830DBB194F84A3094F84920734909695C
S113136021F03F0194F84C00084394F84B100029F5
S113137014BF022100219B0003F00C03034312015C
S113138002F0300213430B43684A136194F860304F
S1131390002B37D0654B196C21F0010194F86120C2
S11313A00A431A641B6C23F0020394F86220002A97
S11313B014BF0222002213435C4A1364136C23F00B
S11313C0040394F86320002A14BF04220022134368
S11313D0564A1364136C23F0080394F86420002A1B
S11313E014BF082200221343504A1364136C23F0E1
S11313F0100394F86520002A14BF1022002213431E
S11314004A4A136494F8503033B1494B626D1A6000
S1131410A26D5A60E26D9A6094F86630EBB1434A6B
S1131420936E00209066516821F4805194F86830DE
S11314301B0303F480530B435360906694F86730A6
S11314405BB194F869305B0003F00E0394F86A20F2
S113145042F080521343354A936694F87430002B5B
S113146000F0E18033498B7803F07F0394F8752012
S113147082F0010243EAC213DBB28B7094F9763036
S1131480002BBCBF20335BB22A490A7903F01F0347
S113149002F0E00213430B7100251EE604F1100173
S11314A0607FFFF74DF8054600287FF4CFAE04F1C6
S11314B0200194F82800FFF7DDF90546FFF720F82E
S11314C0022825D0032826D0012801D0002601E0D7
S11314D004F13606002D7FF4C4AEF378032B2BD031
S11314E08DF80730B3788DF8063073788DF80530B1
S11314F0337820A800F87C3DFFF730FB0546002830
S11315007FF4AFAEE11DA07BFFF738F90546A8E6EE
S113151004F13A06DEE704F13E06DBE7580000205A
S113152000400640CC5D00000050064000800440AE
S11315305C00002000D0074094F828300BBB637F88
S113154093BBE378002B42D10125002D7FF489AEB3
S1131550E11DA07BFFF712F9054600287FF481AE58
S1131560F3788DF80730B3788DF8063073788DF8FA
S11315700530337820A800F87C3DFFF7EFFA0546E4
S11315806FE606238DF8073002238DF80630012319
S11315908DF8053020A800F87C3DFFF7DFFA0546FA
S11315A0637F7BB10128D0D101238DF8073000225D
S11315B08DF806208DF8053020A800F87C3DFFF753
S11315C0CDFA0546E378002BBFD0012DBDD102230F
S11315D08DF8073000238DF806308DF8053020A8EB
S11315E0012300F87C3DFFF7B9FA0546ADE704F1A5
S11315F036010120FFF7C0F9054600287FF46DADE0
S113160004F13A010220FFF7B7F9054600287FF4F8
S113161064AD04F13E010320FFF7AEF9054600284E
S11316207FF45BAD39E6002557E570B504460D46F9
S1131630112807D9232840F285804D2840F24F8194
S1131640042070BD11287AD8DFE800F00913191FAF
S113165024292E33383C41484F565D646B72002078
S1131660FFF79AFA03460020002D00F0AF812B60AB
S113167070BD0120FFF790FA03460020F4E7022032
S1131680FFF78AFA03460020EEE7FFF7D5FB03468F
S11316900020E9E7FEF7EAFF03460020E4E7FFF74E
S11316A05DF803460020DFE7FEF73CFF0346002019
S11316B0DAE7FFF7BDF803460020D5E7A94B1B681E
S11316C00020D1E7FFF7A4FA03460020CCE700216D
S11316D00420FFF7BFFA03460020C5E701210420D8
S11316E0FFF7B8FA03460020BEE700210520FFF704
S11316F0B1FA03460020B7E701210520FFF7AAFA53
S113170003460020B0E700210620FFF7A3FA0346B2
S11317100020A9E701210620FFF79CFA03460020D8
S1131720A2E700210720FFF795FA034600209BE774
S113173001210720FFF78EFA0346002094E70023D7
S1131740042091E7A0F115040E2C00F29980DFE843
S113175004F00814202B353E434F5A656D767F877D
S11317608F00814BDB68C3F30163022B00F28B8093
S11317707E4A52F82330002024E07B4BDB68C3F31D
S11317808163022B00F28280784A52F823300020D1
S113179018E0754BDB68C3F30173022B79D8734AE5
S11317A052F8233000200DE06F4BDB689B0F022BB7
S11317B072D86E4A52F82330002003E0FFF73CFB56
S11317C003460020002D00F001812B6070BDFFF75F
S11317D0ABFA03460020F5E7654B9B78DB0902D0A2
S11317E000231846EEE7FFF705FB03460020E9E770
S11317F05F4B9B78DB0952D15B4B1B6913F00103F0
S113180050D10020DEE75A4B9B78DB094ED1564B72
S11318101B6913F002034CD10020D3E7544B9B788F
S1131820DB094AD14FF4FA330020CBE74E4B1B6C53
S1131830C3F30013002B43D14FF48070C2E74A4B2B
S11318401B6CC3F3C003002B3DD14FF48070B9E788
S1131850454B1B6CC3F38003C3BB4FF48070B1E7EB
S1131860414B1B6CC3F340039BBB4FF48070A9E74F
S11318703D4B1B6C13F001032ED14FF48070A1E794
S1131880002304209EE7002318469BE70023184604
S113189098E70023184695E70023184692E70023AB
S11318A018468FE74FF47A7300208BE7002318461D
S11318B088E74FF4FA43002084E70023184681E7C1
S11318C0002318467EE7002318467BE700231846CA
S11318D078E70023184675E70023184672E72428A2
S11318E005D804200023002D70D02B6070BDA0F11A
S11318F03303DBB21A2B07D81E4A22FA03F313F080
S1131900010F18BF0420EDD11B4B03EB4403B3F8C4
S1131910FC201A4B53F8223013F0804F43D14FF47C
S11319208070DFE70120FFF737F9002848D1002352
S11319304FF48070D7E70020FFF72EF90028F6D087
S11319403EE00220FFF728F90028F0D038E016F036
S1131950080F15D116F0100F1AD100234FF4807020
S1131960C1E700BF58000020008004405C00002054
S113197000D0074041210004CC5D00000050064027
S113198000212046FFF7F8F9034616F0100F04D0A3
S113199001212046FFF7F0F90346002B14BF002075
S11319A04FF480709FE70A4B234493F8AC6116F020
S11319B0200FB7D116F0400FBDD116F0800FC0D163
S11319C016F0180FC3D1002318468CE770BD00BF72
S11319D0CC5D000008B5FFF75AFB08BD08B5FFF75A
S11319E024FE08BD70B582B004460D4689B1554B3E
S11319F0234493F8AC3113F0010F63D113F0180FA3
S1131A0030D06A78043A032A5AD8DFE802F0232552
S1131A10272901238DF80030FEF728FE48B104235E
S1131A208DF801300123ADF80230ADF804306D4675
S1131A30DDE7FEF793FE08B10523F1E7FEF772FD3B
S1131A4008B10623ECE7FEF7F3FE002814BF0723D2
S1131A504F23E5E7022206E0032204E0012202E02C
S1131A60062200E0002213F0040F1ABFAE8806F12C
S1131A70FF36002613F0020F1ABF698801F1FF3107
S1131A800021304B03EB4404B4F8FC40A30003F101
S1131A90804303F5CA23186820F0804018602B782F
S1131AA063B1120642F0804206F007063243C900D1
S1131AB001F008010A43244B43F8242002B070BD0E
S1131AC00022D0E72B781F3C042CF7D8DFE804F081
S1131AD02E22160A03001D490A6C22F00102134348
S1131AE00B64EBE7194A126C22F00202002B14BFBC
S1131AF0022300231343154A1364DFE7134A126CCD
S1131B0022F00402002B14BF0423002313430F4AC2
S1131B101364D3E70D4A126C22F00802002B14BFA1
S1131B20082300231343094A1364C7E7074A126CC6
S1131B3022F01002002B14BF102300231343034A86
S1131B401364BBE7CC5D00000050064000800440F5
S1131B5070B582B005460C46FEF7D2FC06469DB130
S1131B602B68022B0ED0042B10D0012B0CBF0125A7
S1131B7004256CB12378043B032B4AD8DFE803F037
S1131B804B4345470225F4E70546F2E70325F0E712
S1131B90FEF7E4FD58B103238DF8073000228DF8D9
S1131BA0062001228DF805208DF8043049E0FEF767
S1131BB03FFE58B106238DF8073002238DF8063016
S1131BC001238DF805308DF804303AE0FEF7AAFCC5
S1131BD050B101238DF8073000228DF806208DF8CE
S1131BE005308DF804302CE0FEF740FD48B30223A5
S1131BF08DF8073000238DF806308DF80530012369
S1131C008DF804301DE0032306E0012304E00623DD
S1131C1002E0FF2300E002238DF807300F4B6288B7
S1131C201A4492F8FC218DF80620A2881A4492F8EE
S1131C30FC218DF80520E288134493F8FC318DF8DB
S1131C400430B54205D001A92846FEF795FE02B03E
S1131C5070BD01A8FEF782FFF9E700BFCC5D00006C
S1131C60154B1B69C3F30363013B052B20D8DFE845
S1131C7003F00316191F1F1C062303700E4A136971
S1131C80C3F30343013343801369C3F303130133E1
S1131C908380136903F00F030133C3807047042367
S1131CA00370EBE705230370E8E707230370E5E718
S1131CB004230370E2E700BF004006402DE9F04131
S1131CC086B005460C468889FFF7ACF98046E08962
S1131CD0FFF7A8F90746F4B12678281F172800F261
S1131CE03681DFE810F01A0055008D00E20034015F
S1131CF03401340134013401340134013401340138
S1131D003401340134013401340134013401340127
S1131D10340134011A010126DFE78E4B1B69C3F33A
S1131D200363022B1FD0002564B301238DF80D300B
S1131D308DF80C3000228DF80E208DF809808DF876
S1131D400A7006A901F8103D3046FEF7A5FC0346CB
S1131D50002B40F0E980002D00F0E68001A8FEF79A
S1131D60FDFE0346E0E00EB90123DDE001A8FFF724
S1131D7026F90220FFF7ACF80346002840F0D4808F
S1131D803546D1E700210120FEF786FC0346DFE754
S1131D90704B1B69C3F30363032B1CD000254CB3A6
S1131DA000238DF80E308DF809808DF80A708DF8B7
S1131DB008308DF80D3002A93046FEF7DFFC0346EB
S1131DC0002B40F0B180002D00F0AE8001A8FEF79A
S1131DD0C5FE0346A8E00EB90123A5E001A8FFF75C
S1131DE0EEF80320FFF774F80346002840F09C80C7
S1131DF03546D4E700213046FEF7C0FC0346DFE752
S1131E00544B1B69C3F30363012B2FD00025002C13
S1131E103AD06368029300228DF80C208DF81420C8
S1131E208DF810808DF811706278012A14BF002299
S1131E3001228DF80D2000228DF80E20A3F57412D6
S1131E40A2F5106244498A4224D802238DF80F3047
S1131E5002A93046FEF774FB0346002B64D1002D23
S1131E6062D001A8FEF77AFE03465DE00EB90123B5
S1131E705AE001A8FFF7A3F80120FFF729F8034669
S1131E80002851D13546C2E700213046FEF758FB01
S1131E900346E2E7A3F5F403A3F590532F4A9342D4
S1131EA09CBF03238DF80F30D2E72A4B1B69C3F381
S1131EB00363062B1ED000254CB300238DF8083095
S1131EC08DF80F308DF80C808DF80D70A37A013BDE
S1131ED08DF80930237A103B8DF80A3002A9304678
S1131EE0FEF7C8FC0346FBB9F5B101A8FEF736FEC0
S1131EF0034619E00EB9012316E001A8FFF75FF8C5
S1131F000620FEF7E5FF034670B93546D4E7002105
S1131F103046FEF7AFFC0346E5E74EB9104A937826
S1131F2043F0800393700023184606B0BDE8F081A7
S1131F300C4A136923F03F0343F00303136102F5D2
S1131F405432937803F07F0393700023ECE700236B
S1131F50EAE700BF0040064000093D000048E801F0
S1131F6000D007400080044010B4054C206021716B
S1131F70A2602373637300205DF8044B704700BFB5
S1131F801C000020F0B583B007460E468DF804000F
S1131F908DF8051001F086FD334B1C7B5C73012327
S1131FA08DF80630002C4AD000242F4D04E0013473
S1131FB0E4B22B7BA34242D9AB6853F82430002B04
S1131FC0F5D01A79022AF2D01A68996801A89047C4
S1131FD00028ECD06C73002EE9D140F203150023E5
S1131FE08DF80630A400204E20E00134E4B23B7B9F
S1131FF0A34212D9BB6853F82430002BF5D01A79C8
S1132000012AF2D01A68996801A890470028ECD0F8
S11320107C73002EE9D14FF4827501F035FD28461A
S113202003B0F0BD043C14F1040FF6D0B3681B599F
S1132030002BF7D01A68996801A89047F2E70A4D77
S11320402B6853F82700FFF722F86F710546002824
S1132050C5D102238DF80630034B1B7B002BDCD04B
S11320600024014FC6E700BF1C000020014B587933
S1132070704700BF1C000020054B5A7B1B7993421C
S113208083BF034B9B6853F822000020704700BFB6
S11320901C00002010B50446044B53F8200000F047
S11320A09BFB0020024B43F8240010BDDC5F0000C2
S11320B02C000020064B53F820301966996DD2018C
S11320C0D2B221F080010A439A650020704700BF14
S11320D0DC5F0000084B53F82000C36C1B0C1B048E
S11320E01943C164836DD201D2B223F080031A4331
S11320F082650020704700BFDC5F0000064B53F888
S11321002030C3F89C10996DD201D2B221F0800125
S11321100A439A6500207047DC5F0000094B53F8BE
S11321202000D0F8943023F47F4343EA0121C0F81F
S11321309410836DD201D2B223F080031A438265D6
S113214000207047DC5F0000094B53F82000D0F8F2
S1132150943023F0FF031943C0F89410836DD20127
S1132160D2B223F080031A4382650020704700BF77
S1132170DC5F0000064B53F8203041EA0222C3F82A
S113218094209A6D42F080029A650020704700BF47
S1132190DC5F0000064B53F82030C3F89010996DB3
S11321A0D201D2B221F080010A439A65002070471F
S11321B0DC5F0000084B53F8200083681B0C1B04F1
S11321C019438160836DD201D2B223F080031A4394
S11321D082650020704700BFDC5F00000B4B53F8A2
S11321E0203003EBC101C868930003F0040320F01E
S11321F004000343CB60CB68920002F0080223F092
S113220008031A43CA600020704700BFDC5F000067
S11322104B782BB98B78002B40F0A480CB7800E06E
S1132220012303F001030A78002A00F0C980002B7F
S113223040F09680644B53F82030002A00F09B80D5
S1132240D3F88C2042F48062C3F88C20D3F88C201D
S113225042F40062C3F88C20D3F88C2042F48052FC
S1132260C3F88C20D3F88C2042F40072C3F88C207D
S1132270D3F88C00CA7A120202F4807220F48070BF
S11322800243C3F88C20D3F88C2042F08002C3F8B8
S11322908C204A7822B99A6D22F010029A6503E0E4
S11322A09A6D42F010029A658A78002A4ED09A6D8F
S11322B042F020029A65CA78002A4CD09A6D42F006
S11322C040029A65986D0A79520002F0020220F0E9
S11322D0020002439A659A6D22F001024879024392
S11322E09A659A6D087A003018BF012022F008021E
S11322F042EAC0029A65D3F88C008A79120102F08E
S1132300100220F010000243C3F88C20D3F88C0094
S1132310CA79520102F0200220F020000243C3F8DF
S11323208C20D3F88C004A7A920002F0040220F048
S113233004000243C3F88C20D3F88C2022F001025D
S1132340897A0A43C3F88C20002070479A6D22F0E2
S113235020029A65AFE79A6D22F040029A65B1E7D0
S1132360012070470A78002A3FF464AF01207047C7
S1132370154B53F82030D3F88C2042F48022C3F854
S11323808C20D3F88C2042F40022C3F88C20D3F89C
S11323908C2042F48012C3F88C20D3F88C2042F4B1
S11323A00032C3F88C20D3F88C20C87A003018BFD0
S11323B0012022F4803242EA0042C3F88C2062E712
S11323C0002BD5D101207047DC5F0000F8B507462B
S11323D00D46254B53F82060CCB211F4007F0CD18C
S11323E015F4807F14D115F4806F1CD1002C38D0E3
S11323F000251D4B03EBC70723E0336843F48073C8
S11324003360194B034493F9100001F023FBE7E711
S1132410736D43F080037365134B3B4493F91400CD
S113242001F018FBDFE7336843F0400333600E4BE1
S11324303B4493F9180001F00DFBD7E7013564081C
S11324400FD014F0010FF9D0EBB206EBC301CA6848
S113245042F04002CA603B4493F91C0001F0FAFACE
S1132460ECE70020F8BD00BFDC5F0000F8B50746CC
S11324700D46244B53F82060CCB211F4007F0CD1EC
S113248015F4807F14D115F4806F1CD1002C38D042
S113249000251C4B03EBC70723E0336823F4807348
S11324A03360184B034493F9100001F0DFFAE7E7B7
S11324B0736D23F080037365124B3B4493F914004E
S11324C001F0D4FADFE7336823F0400333600D4BA7
S11324D03B4493F9180001F0C9FAD7E701356408C1
S11324E00FD014F0010FF9D0EBB206EBC301CA68A8
S11324F022F04002CA603B4493F91C0001F0B6FA92
S1132500ECE7F8BDDC5F000010B4154B53F8201065
S11325100B6803F48073002B0CBF00204FF4007091
S11325204B6D13F0800F18BF40F480700B6813F0EC
S1132530400F18BF40F48060072301245A1C01EBAC
S1132540C202526812F0400F1CBF04FA03F2104397
S1132550013BB3F1FF3FF1D15DF8044B704700BF7D
S1132560DC5F000010B4154B53F82010086800F429
S113257000704B6F13F0800F18BF40F480700B682D
S113258013F0800F18BF40F48060CB6E13F0800FFF
S113259018BF40F40060002301245A1C01EBC2025E
S11325A0526812F0800F1CBF04FA03F21043013387
S11325B0082BF2D15DF8044B704700BFDC5F0000CC
S11325C030B4214B53F82000CAB211F4007F04D078
S11325D0036823F400730360036811F4807F10D050
S11325E0436F23F081034367436F23F08203436700
S11325F0436F23F084034367436F23F088034367E7
S1132600436F11F4806F04D0036823F080030360E8
S1132610036811F4006F03D0C36E23F08003C36614
S11326200023012503E052080133082B0AD012F0DD
S1132630010FF8D0016D05FA03F421EA04010165E4
S1132640016DF0E730BC7047DC5F000070B582B00C
S113265005461C4B53F8203000220192186800F004
S1132660070001248440184B53F825301B78022BB3
S11326701ED0032B07D0012B1FD0E4B20198B0FB6E
S1132680F4F002B070BD0F4B03EB450393F83D60CB
S113269001A93046FEF7C9FF019B23B9094B03EB9F
S11326A0450595F83C6001A93046FEF7BEFFE4E716
S11326B001A91A20FEF7B9FFDFE701A90020FEF700
S11326C0B4FFDAE7DC5F00002C000020F8B5354BDE
S11326D053F8203013B101273846F8BD324B53F874
S11326E020508B7B13700023537053802D4B43F881
S11326F0202002F1080702F1180402F1580E02F139
S1132700380C2646002327F8023B46F8043B4CF8D5
S1132710043B0EF8013BA742F5D117460C4606468A
S1132720284600F059F8617B284600F049F8304605
S1132730FFF78CFF7860237B023BDBB2022B20D9AE
S11327400027EA6E637C9B0103F0400322F0400201
S11327501343EB66D5F88420E37B9B01DBB222F0C4
S1132760C0021343C5F88430237C83B92B6823F457
S113277080732B600C48064496F9100001F076F93A
S1132780AAE721463046FFF743FD0746D9E72B6801
S113279043F480732B600448064496F9100001F05A
S11327A059F999E72C000020DC5F0000034B53F833
S11327B020305868B0FBF1F080B270472C00002044
S11327C0436D43F001034365036823F0070301F0FD
S11327D007010B430360704710B4436F0023436742
S11327E0042242650268036043608360C364026D2F
S11327F003658365C365036643668366C26EC36609
S113280003678367C367C0F88030C0F88430C0F8BA
S11328108830C0F88C30C0F89030C0F89430C0F8DC
S11328209830C0F89C30194600EBC302D468D160DC
S113283011610133082BF7D15DF8044B704701296E
S11328400ED9052999BF0239012306394FF4807343
S113285003FA01F142B9C36E23EA0101C16670476C
S1132860102303FA01F1F5E7C36E1943C1667047FB
S1132870032923D8DFE801F0020A121B836F23F037
S11328800F0302F00F021A4382677047836F12012D
S1132890D2B223F0F0031A4382677047836F1202A7
S11328A002F4706223F470631A4382677047836F83
S11328B0120392B223F470431A43826770470000F4
S11328C0F8B52B4B53F820305A78012A00D0F8BDC4
S11328D0284A52F820004A00D2B2456EC9000424A6
S11328E004FA01F129422ED000EBC2052E69B6B2DA
S11328F0511CC9B200EBC1010C69A4B2A6421DD996
S11329008768101DA41B3C4423F81040E86820F09D
S11329108000E860E868C86820F08000C860C96882
S113292003EB82018C6B002CD1D0134493F8583004
S1132930002BCCD089690020A047C8E7101DA41B38
S113294023F81040E2E7511C00EBC101496811F083
S1132950800F04BF0132D2B200EBC2000469111D22
S113296023F81140C16821F08001C160C168D7E734
S11329702C000020DC5F00002DE9F84FAE4B53F82B
S113298020A0BAF1000F00F0F9809AF80130002B72
S113299040F0F780A94B53F82080D8F8003023F09A
S11329A01803C8F80030D8F84C301B0C1B04C8F8C6
S11329B04C30D8F808301B0C1B044A881343C8F861
S11329C00830D8F8003023F02003C8F80030D8F8D5
S11329D0643023F08003C8F86430D8F8643023F0FE
S11329E00103C8F864300B78002B00F012810F4605
S11329F00026934B03EBC00B10E000222146404617
S1132A00FFF736FF7B682B445B783BB3012B57D031
S1132A100136F6B23B78B34240F2FB8035017B6865
S1132A205A195C5D4FEA540993680AEB8402936176
S1132A307B682B44DB6893630AEB0403012283F86D
S1132A405820032CDED87B682B449A79002AD4D0F2
S1132A501A7921464046FFF70BFFD3E7D8F86430D4
S1132A604FEAC9024FF0040909FA02F923EA0903FB
S1132A70C8F8643008EBC403DA6822F01002DA60A4
S1132A80DA6822F02002DA60D8687A681544AA78F5
S1132A90910001F0040120F004000143D960D968D9
S1132AA0920002F0080221F008010A43DA60DA68B1
S1132AB042F04002DA601BF9040000F0CBFFA7E704
S1132AC0D8F864204FEAC909042303FA09F313432D
S1132AD0C8F86430D8F86420082303FA09F949EAED
S1132AE00202C8F864207B682B44DB79002B37D0C2
S1132AF008EBC403DA6842F01002DA60DA6842F0E4
S1132B002002DA607B681D44EB78032B3CD0012B58
S1132B1051D0042B66D0022B2DD108EBC403DA6804
S1132B2022F00402DA60DA6842F00802DA60631C18
S1132B30DBB208EBC303DA6822F00402DA60DA6875
S1132B4042F00802DA60631CDBB208EBC303DA6804
S1132B5042F04002DA601BF9040000F07BFF57E703
S1132B6008EBC403DA6822F01002DA60DA6842F093
S1132B702002DA60C6E70120BDE8F88F0120BDE835
S1132B80F88F0120BDE8F88F08EBC403DA6842F03F
S1132B900402DA60DA6822F00802DA60631CDBB24D
S1132BA008EBC303DA6822F00402DA60DA6842F060
S1132BB00802DA60C7E708EBC403DA6842F00402EB
S1132BC0DA60DA6822F00802DA60631CDBB208EB30
S1132BD0C303DA6842F00402DA60DA6822F0080219
S1132BE0DA60B0E708EBC403DA6822F00402DA60C2
S1132BF0DA6842F00802DA60631CDBB208EBC30354
S1132C00DA6842F00402DA60DA6822F00802DA6074
S1132C1099E701238AF80130D8F800209AF80030A7
S1132C20DB0003F0180322F018021343C8F8003045
S1132C300020BDE8F88F00BF2C000020DC5F0000FE
S1132C40F85F00002DE9F84F304B53F82060304B0B
S1132C5053F820B0336823F018033360F36C1B0C73
S1132C601B04F364B3686FEA13436FEA0343B3606E
S1132C70336823F0200333600B78002B34D088466C
S1132C8000274FF0010A4FF0040920E0736EED00B5
S1132C900AFA05F223EA02037366736E09FA05F56C
S1132CA023EA0505756606EBC404E36823F0040310
S1132CB0E360E36823F00803E360E36823F0400380
S1132CC0E3600137FFB298F80030BB420CD9D8F862
S1132CD004203B01D45C6508032CD7D8002221468C
S1132CE03046FFF7C5FDD1E70BF118030BF13800AF
S1132CF00146002243F8042B41F8042B8342F9D106
S1132D0000208BF80100BDE8F88F00BFDC5F0000F5
S1132D102C000020044B53F820301BB1043133F84D
S1132D2011007047002070472C00002030B4174B6E
S1132D3053F8204004EBC100C368C3F30013C26816
S1132D40120902F002021343022B02D0002030BC0D
S1132D507047656E4B08DB0004229A402A42F5D086
S1132D600131C9B204EBC101CA6822F08002CA6011
S1132D70CA68C26822F08002C260C268616E08221A
S1132D8002FA03F30B436366E0E700BFDC5F000075
S1132D9070B44F4C54F82000002A52D014464A080C
S1132DA0651EEDB2022D59D9466ED2000425954018
S1132DB035434566466E082505FA02F232434266FB
S1132DC0002B71D000EBC103DA6842F01002DA6024
S1132DD0DA6842F02002DA60062C73D0042C74D036
S1132DE0052C6CD00125022600EBC103DC68B2007F
S1132DF002F0040224F004042243DA60DC6876085A
S1132E0024F0080444EAC604DC600131C9B200EBD2
S1132E10C100C268A90001F0040122F004021143B8
S1132E20C160C2686D0822F0080242EAC502C260AD
S1132E30DA6822F04002DA60C36843F04003C360FA
S1132E4009E000EBC101CB6823F00403CB60CB683D
S1132E5023F00803CB60002070BC7047436ED2009F
S1132E60042505FA02F223EA0202426600EBC100DD
S1132E70C36823F01003C360C36823F02003C36056
S1132E80C268A3002B4022F004021343C360C3684A
S1132E90A40004F0080423F008031C43C460C368BE
S1132EA043F04003C360D6E700EBC103DA6822F0C5
S1132EB01002DA60DA6842F02002DA608CE7022558
S1132EC02E4691E7022501268EE701252E468BE743
S1132ED0DC5F000008B500210846FFF7F1FC08BDDF
S1132EE008B501210020FFF7EBFC08BD08B502215D
S1132EF00020FFF7E5FC08BD08B503210020FFF71B
S1132F00DFFC08BD08B500210120FFF7D9FC08BD8E
S1132F1008B501210846FFF7D3FC08BD08B5022116
S1132F200120FFF7CDFC08BD08B503210120FFF700
S1132F30C7FC08BD08B500210220FFF7C1FC08BD8D
S1132F4008B501210220FFF7BBFC08BD08B502212A
S1132F500846FFF7B5FC08BD08B503210220FFF7BA
S1132F60AFFC08BD08B500210320FFF7A9FC08BD8C
S1132F7008B501210320FFF7A3FC08BD08B5022111
S1132F800320FFF79DFC08BD08B503210846FFF7A1
S1132F9097FC08BD2DE9F0433F4B53F820303F4ADE
S1132FA052F820801A6822F018021A6000218E4616
S1132FB001244FF0200C80271026402503EBC1028A
S1132FC0C2F810E0D06820F00400D060D06820F08F
S1132FD00800D060D06820F01000D060D06820F0E5
S1132FE02000D0601A6822F020021A60186F04FAD8
S1132FF001F202431A671A6801F1100004FA00F0A2
S113300022EA00021A60586EC1F34602D2000CFA9A
S113301002F920EA09005866586E07FA02F920EA14
S113302009005866586E04FA02F920EA0900586645
S1133030586E06FA02F920EA09005866586E05FA35
S113304002F220EA02025A6601310829B6D19A6EC8
S113305022F470229A669A6E22F0C00242F0400274
S11330609A669A6E22F03F029A660020D8675A6DDB
S113307022F080025A655A6D22F060025A659A68FD
S1133080120C12049A605A68120C12045A6088F8DE
S11330900100BDE8F08300BFDC5F00002C000020CD
S11330A02DE9F041BDF818703C4C54F820503C4CCC
S11330B054F82060AC68A4B27078042819D00328AE
S11330C003BF0134A4B200200120CAB9B3F5004FF4
S11330D058D8B7F5004F58D804FB03F2C2F3CF32E7
S11330E004FB07F7C7F3CF37B3F5004F05D01346FA
S11330F00AE06400A4B20020E7E7531C9BB203E09B
S11331009C4245D3BC4246D3002845D14A08D5F851
S113311064804FEAC20E4FF0010C0CFA0EFC1CEA5C
S1133120080F25D0D5F864C0802101FA0EFE1EEAEE
S11331300C0F07D0296811F0180F06D105EB021106
S11331400B6102E005EB02110B6153000133DBB2AA
S1133150013305EBC3039F60AA6D9DF81C30DB01AE
S1133160DBB222F080021343AB657480BDE8F081CA
S11331702A6812F0200F18BF5B08013105EBC1016A
S11331808B60E9E70120BDE8F0810120BDE8F08112
S11331900120BDE8F0810120BDE8F081DC5F000082
S11331A02C0000202DE9F04F85B07B4B53F82030E4
S11331B00393002B00F0B1821E465B78002B40F095
S11331C0AE820D460290754B53F82040236823F0DD
S11331D018032360236823F4007323602368636D5A
S11331E043F0040363658B7873700B78002B00F055
S11331F0BF804FF000094FF0040B4FF0010A24E0A8
S1133200636E4022BA4023EA0203636659E05B78A6
S1133210012B236F0AFA06F60CBF23EA06061E43A7
S11332202667EB6843441B7A002B00F09980626E9A
S1133230102303FA07F71743676609F101095FFAD8
S113324089F92B784B4540F2938009EB89034FEAC7
S11332504308EA6812F81360636E7708FF000BFAFC
S113326007F223EA0203636604EBC603D868EA683C
S113327042445279910001F0040120F0040001431A
S1133280D960D968920002F0080221F008010A43CB
S1133290DA60DA6842F01002DA60DA6842F020029A
S11332A0DA60226806F110030AFA03F31343236079
S11332B06B69DB78002BA3D0626E4023BB401343C1
S11332C06366626E2023BB4013436366636E0AFA2F
S11332D007F223EA02036366636E8022BA4023EA9C
S11332E002036366EB6843441A7931462046FFF7CC
S11332F0A6FAEB6843449A79002A88D00136F6B2DC
S1133300226806F110030AFA03F31343236004EB63
S1133310C606F168EB6843445B799A0002F0040244
S113332021F004010A43F260F2689B0003F00803F1
S113333022F008021343F360F36843F01003F360D0
S1133340F36843F02003F360EB684344DB79012B1B
S11333507FF467AF626E0223BB401343636660E78A
S1133360636E102202FA07F723EA0707676664E729
S11333706B78002B00F0EC804FF000084FF0040A4B
S11333804FF001094FF0020B60E0606E0BFA03F29C
S11333900243626616E000BF2C000020DC5F0000E0
S11333A0127A012A00F0B780206F09FA01F2024371
S11333B0226720684A1CD2B2103209FA02F220EACB
S11333C0020222606A69D278002A00F0AB80606E43
S11333D040229A4002436266606E20229A40024371
S11333E06266606E09FA03F2024362662A69324435
S11333F0D279002A00F09D80606E80229A400243B8
S113340062662A6932449279002A00F09980606EDB
S1133410102202FA03F30343636601F0FE072B69EB
S11334203344DA7A39462046FFF709FA2B691E44F9
S1133430791C327BC9B22046FFF701FA08F1010872
S11334405FFA88F86B78434540F282804FEA0816A9
S11334502B69995D626E4B08DB000AFA03F022EADD
S11334600002626604EBC102D2F80CC02869304441
S1133470407B870007F004072CF0040C47EA0C0794
S1133480D760D768800000F0080027F008073843A9
S1133490D060D06840F01000D060D06840F02000C8
S11334A0D060206801F1100209FA02F2024322609E
S11334B02A693244507A00283FF472AF4A1CD2B2CF
S11334C0276802F1100009FA00F03843206004EB89
S11334D0C202D2F80CC028693044807B870007F010
S11334E004072CF0040C47EA0C07D760D768800067
S11334F000F0080027F008073843D0602A693244F6
S1133500927A012A3FF441AF626E0BFA03F022EA89
S11335100002626656E7226F09FA01F022EA00020D
S1133520226746E7626E4020984022EA0002626603
S113353052E7626E8020984022EA0002626660E7E9
S1133540626E102000FA03F322EA0303636664E761
S1133550636D43F0020363656B69DA78002A65D012
S11335601B78C3B1E36F43F40043E367E26F6B6915
S11335709B781B0203F4706322F470621343E367C5
S1133580029B042B34BF4FF0040C4FF0020C0426B2
S1133590002301271DE0E36F23F40043E367E5E71D
S11335A0E26F07FA06FE22EA0E02E2676A6901EB9D
S11335B0410111448A79012AD4F888200CBF22EAF7
S11335C000001043C4F8880001330136DAB2944590
S11335D01BD919466A6903EB430002441279002A95
S11335E0F2D0E26F07FA03F00243E2676A6903EB81
S11335F0430E72445279002AD2D0D4F87CE007FA00
S113360006F242EA0E02E267D0E76B695B781BB10F
S1133610636D43F080036365626D6B69DB785B0106
S113362003F0600322F06002134363652368AA7801
S1133630042A14BF0022012223F0200343EA421388
S11336402360A9680298FFF7B1F8039B5880E36CE4
S11336501B0C1B04E364AB78042B0ED0A268039B01
S11336605B88013B9BB2120C12041343A3602B78BA
S1133670002B58D00027B8460DE0A368039A52885F
S11336801B0C1B0443EA5203A360F0E70137FFB2AB
S11336902B78BB4225D907EB87025600EB689919B2
S11336A013F812904B88CDF80480CDF80080424680
S11336B049460298FFF7F4FCEB6833449A79002AF0
S11336C0E4D0DA79002AE1D15B8809F10101CDF86F
S11336D00480CDF800804246C9B20298FFF7E0FCAE
S11336E0D4E76B78A3B100263746DDF808803101B2
S11336F0286942185388415C0197928800923A469F
S11337004046FFF7CDFC0136F6B26B78B342EED8F3
S113371060B10023039A537002E0012000E001200D
S113372005B0BDE8F08F6B78002BDCD1A26EEB788E
S113373003F03F0322F03F021343A366A26E2B79EA
S11337409B01DBB222F0C0021343A366636D43F016
S113375001036365636D43F0080363652268039B9B
S11337601B78DB0003F0180322F0180213432360D4
S11337700020D5E770B51C46134B53F82050134B6B
S113378053F82060012908D073689A4201D90120B6
S113379070BD1146FFF70AF802467378042B10D067
S11337A0013AAB6891B21B0C1B040B43AB60AB6DCD
S11337B0E401E4B223F080031C43AC657280002072
S11337C070BD5208EDE700BFDC5F00002C00002054
S11337D070B49DF80C600D4C54F8205071B1501E1B
S11337E0023B4C1E52FA84F210F8011F33F8024FC8
S11337F0013105EBC1018C609042F5D11EB1AB6D76
S113380043F08003AB65002070BC7047DC5F0000B0
S1133810254B53F820305A6F12F0800F29D1234AD8
S113382012782AB3D3F8942022F0FF02C3F894202C
S1133830D3F8942022F47F42C3F89420D3F8942040
S113384022F0FF02C8B20243C3F89420D3F89420B4
S1133850090289B222F47F421143C3F89410002272
S11338601A6612490A701A6822F400721A601B68F8
S1133870704701200D4A107019665A6F22F08102B8
S11338805A675A6F22F082025A675A6F22F08402F2
S11338905A675A6F22F088025A675A6F1A6822F4DC
S11338A000721A601B687047DC5F00003C00002057
S11338B070B5444B53F82060002E7FD07378002BF2
S11338C07ED1414B53F82040D4F8803023F00103DB
S11338D0C4F88030236823F018032360D4F88020D0
S11338E00B78DB0003F0080322F008021343C4F84A
S11338F080308B79002B47D0D4F8803043F080039C
S1133900C4F880300D468B79002B44D16B7A002BA0
S113391047D0D4F8803043F04003C4F880306B7A49
S1133920002B45D1D4F880202B7A5B0103F02003CF
S113393022F020021343C4F88030D4F88020EB7ABC
S11339401B0103F0100322F010021343C4F880306B
S1133950E36C1B0C1B046A881343E364A3681B0C0D
S11339601B04AA881343A36063681B0C1B046A88A6
S113397013436360D4F8803043F00103C4F880300B
S113398005237370002070BDD4F8803023F08003C9
S1133990C4F88030B6E7CA7900212046FEF768FFF4
S11339A0B4E7D4F8803023F04003C4F88030B6E79D
S11339B0AA7A01212046FEF75BFFB3E7012070BD20
S11339C0012070BD2C000020DC5F0000074B53F881
S11339D02020074B53F82010D2F8803023F0010345
S11339E0C2F8803000204870704700BFDC5F0000E0
S11339F02C00002030B40A4A52F82120D2F880105A
S1133A00D2F88040156852680280C5F34022827063
S1133A10C4F34002C270C1F38002027130BC70472B
S1133A20DC5F000072B110B4144600F11003084AC0
S1133A3052F8233023601030054B43F820105DF812
S1133A40044B70471030024B43F82010704700BFFE
S1133A500090FF1F420900F01F00012303FA00F049
S1133A60014B43F82200704700E100E0430900F0F5
S1133A701F00012202FA00F02033024A42F8230018
S1133A80704700BF00E100E0054B1B68002B04DD1C
S1133A90013B034A1360002B00DD704762B6FCE76C
S1133AA04000002072B6024A136801331360704765
S1133AB040000020002808DB0901C9B200F1604081
S1133AC000F5614080F800137047C0B2C0F3810272
S1133AD0012A0DD010B40A4C0A4B022A18BF2346FF
S1133AE000F003000901C9B219545DF8044B704792
S1133AF0054B00F003000901C9B21954704700BF17
S1133B0020ED00E01CED00E018ED00E0002807DBEC
S1133B1000F1604000F5614090F80003000970472F
S1133B20C0B2C0F38102012A09D00649064B022A19
S1133B3018BF0B4600F00300185C00097047034BE4
S1133B40F8E700BF20ED00E01CED00E018ED00E018
S1133B50430900F01F00012202FA00F06033024A18
S1133B6042F82300704700BF00E100E0430900F081
S1133B701F00012202FA00F04033024A42F82300F7
S1133B80704700BF00E100E043094033044A52F8A3
S1133B90233000F01F0023FA00F000F0010070470A
S1133BA000E100E043098033044A52F8233000F076
S1133BB01F0023FA00F000F00100704700E100E06C
S1133BC010B50C46164901EB80014520FDF72DFD8B
S1133BD0144B9A6842F002029A609A6822F0020238
S1133BE09A609A6842F001029A6021789A6822F0F9
S1133BF008029A609A68002914BF082300231A4314
S1133C00084B9A6061789A6822F004029A609B6873
S1133C10002914BF042200221343024A936010BDFA
S1133C204400002000700340024A936823F001031B
S1133C309360704700700340024A5369194351610D
S1133C40704700BF00700340024A936919439161B1
S1133C50704700BF00700340F8B506460C4617468F
S1133C60244D05EB80014520FDF7DFFC55F82600C7
S1133C70214A0023A0FB070101F0A4FE10F1FF3646
S1133C8041F1FF37230103F1804303F55C339B6A61
S1133C90C3F38103012B20D0022B24D1012F08BFB1
S1133CA0002E12D30120F8BD144A0023BB4208BFE2
S1133CB0B24210D3002F08BFB6F5803F05D3B0F150
S1133CC0011006044FF6FF721643023424010C4B14
S1133CD01E510020F8BD0120F8BD012F08BF002EA1
S1133CE0E2D30120F8BD012F08BF002EEDD301203F
S1133CF0F8BD00BF4400002040420F00FEFF010059
S1133D000070034030B583B030238DF80430312384
S1133D108DF8053032238DF8063033238DF80730C3
S1133D200D4659B9D37C002B40F0AC80564B996AB0
S1133D3021F002019962996A00230EE0D47C0B0100
S1133D4003F1804303F55C33996A21F0020199621F
S1133D50996A002C14BF02230023144619432B0133
S1133D6003F1804303F55C3399621278996A21F078
S1133D700C019962996A920002F00C020A439A6259
S1133D806378012B68D06168AB1C1B013E4AD1509B
S1133D90227A2B0103F1804303F55C33996A21F401
S1133DA000019962996AD20502F400020A439A62F8
S1133DB0E268996A21F070619962996A120602F0C8
S1133DC070620A439A62217C9A6A22F480229A627F
S1133DD09A6A002914BF4FF4802300231A432B014D
S1133DE003F1804303F55C339A62617C9A6A22F49E
S1133DF000329A629A6A002914BF4FF400330023F8
S1133E001A432B0103F1804303F55C339A62A17CCE
S1133E109A6A22F480329A629A6A002914BF4FF493
S1133E20803300231A432B0103F1804303F55C33F1
S1133E309A62237DC3B914490B690122AA4023EA7B
S1133E4002030B6102AB1D4415F9040CFFF70EFECF
S1133E500023184603B030BD62682946FFF7FCFE14
S1133E6003460028F5D193E7074A11690123AB40C3
S1133E700B43136102AB1D4415F9040CFFF7EAFD73
S1133E800023E6E70123E4E7007003402DE9F8434B
S1133E9005460E4691461F461A4C04EB8001452008
S1133EA0FDF7C3FB54F82580174A0023A9FB08013A
S1133EB001F088FD10F1FF3441F1FF35002D08BFFA
S1133EC0B4F5803F17D2A7FB08010F4A002301F085
S1133ED079FD10F1FF3041F1FF31002908BFB0F541
S1133EE0803F0BD22204024302363601074B9A511B
S1133EF00020BDE8F8830120BDE8F8830120BDE877
S1133F00F88300BF4400002040420F0000700340CB
S1133F10F8B506460F46404901EB80014520FDF700
S1133F2084FB3E49BB1C1B01C858002501EB07114B
S1133F308B6AC3F38103012B4DD1002D08BFB0F56B
S1133F40803F27D3020C002380B2002180185941FE
S1133F504C01420144EAD063121A63EB01035C0290
S1133F6044EAD25455022A1844EB01039D0145EA60
S1133F7092659401A21A65EB030380185941264BFC
S1133F8053F826200023264C00250019694101F02E
S1133F9019FDF8BD441C45F100056901620141EABF
S1133FA0D463121B63EB0503590241EAD251500258
S1133FB0021941EB0503990141EA92619001801ACB
S1133FC061EB0301144B53F82620002300196941C7
S1133FD001F0F8FCF8BD441C45F1000569016201DB
S1133FE041EAD463121B63EB0503590241EAD2513F
S1133FF05002021941EB0503990141EA92619001D3
S1134000801A61EB0301044B53F8262000230019A6
S1134010694101F0D7FCF8BD440000200070034062
S113402080841E002DE9F0410646324B8A1C03EBC6
S1134030021257683C4603EB01139B6AC3F38103E6
S1134040012B2BD0002513B32B4901EB8001452014
S1134050FDF7EBFA6001E10E001B61EB05014B0279
S113406043EAD0534202101943EB05018B0143EAA2
S113407090638201101A63EB01011F4B53F8262051
S113408000230019694101F09DFCBDE8F0811A4943
S113409001EB80014520FDF7C8FADBE7DFF8588023
S11340A008EB80014520FDF7C0FA3A0C0023BCB2AE
S11340B00025A4185D416901620141EAD463121B21
S11340C063EB0503590241EAD2515002021941EB54
S11340D00503990141EA92619001801A61EB0301A1
S11340E058F8262000230019694101F06BFCBDE853
S11340F0F08100BF00700340440000200231090138
S1134100014B5A50704700BF0070034043EA02431A
S11341100231090101484350704700BF0070034059
S1134120074B8A1C1201985803EB01139B6AC3F3D3
S11341308103012B04BF83B203EB1040704700BF1F
S113414000700340074B8A1C03EB0212506803EB18
S113415001139B6AC3F38103012B04BF83B203EBF6
S11341601040704700700340024A136919431161FB
S1134170704700BF00700340024A136923EA01013B
S11341801161704700700340014BD86808407047C4
S113419000700340014BD960DB6870470070034036
S11341A008B50B4BB3F87C304FF08C41094A42F808
S11341B023109B0003F1804303F5CA231A6842F0DD
S11341C080421A60044A05490220FEF77FFA08BDBE
S11341D0C85E000000500640280100203095FF1FF3
S11341E008B501F0C1F908BD00B583B001A800F01D
S11341F02BFF002001F0A8F99DF805302BB99DF89C
S1134200063033B903B05DF804FB012001F09CF9DA
S1134210F5E7022001F098F9F4E708B5FFF7E4FFA9
S113422001210020FFF7B6FF08BD30B583B0164B5F
S1134230B3F88A204FF08C41144B43F82210144CED
S1134240A36843F00103A36001A94520FDF7EDF93C
S1134250104D29460020FFF7B3FC2A1D0021084613
S1134260FFF750FD0F213020FFF724FC00220A49FC
S11342703020FFF7D7FB616941F001010020FFF70F
S1134280DBFC03B030BD00BFC85E00000050064038
S113429000700340206000001B42000008B54FF08E
S11342A0E022D2F8883D43F47003C2F8883DFFF75A
S11342B0F9FB00F041FDFFF773FF01F055F9FFF73B
S11342C0B4FFFFF7E1FBFEE760B170B506460C46AC
S11342D00025204600F0A1F801351834AE42F8D18B
S11342E0002070BD00207047012A0AD012B1022AB2
S11342F010D0704750F8213023F0020340F82130E9
S1134300704750F8213023F0010343F0020340F8D2
S11343102130704750F8213043F0030340F8213036
S1134320704750F8213023F4E063120202F4E06293
S11343301A4340F82120704750F8213023F47023A9
S1134340120402F470221A4340F82120704750F8F6
S11343502100C0F30340704750F8213043F08073CC
S113436040F821307047D0F8C020012303FA01F14E
S11343701143C0F8C0107047D0F8C030012202FACF
S113438001F123EA0103C0F8C03070470B7803F051
S11343900103C0F8C4304B7803F01F03C0F8C830E1
S11343A07047D0F8A00070474FF0FF33C0F8A0303A
S11343B070474069704710B4436901248C4023EA74
S11343C004038A401A4342615DF8044B704741611B
S11343D07047816170478069704708B500F08BF8B9
S11343E008BD08B500F09DF808BD10B403680124A9
S11343F08C4023EA04038A401A4302605DF8044BAC
S11344007047016070470068704741607047816081
S11344107047C16070470069704710B44468016810
S113442051F82420037A012B3DD0002B38D0022BE5
S11344303ED0437A1B0103F0100322F050021A43CA
S1134440837A9B0103F040031343C27A120202F4FD
S1134450E06223F407431343027BD20392B2134373
S113446023F47023427B120402F470221343827BF0
S11344700AB143F0807341F824300168D1F8C020B8
S113448044680123A34022EA0302C37BA3401343ED
S1134490C1F8C030C37A012B0DD05DF8044B7047CE
S11344A022F00202C5E722F0010242F00202C0E754
S11344B042F00302BDE702695369017D81B101291C
S11344C014D05361037D012BE7D1016944680A6864
S11344D0A34022EA0302437DA34013430B60DCE7BD
S11344E044680121A14023EA0103EAE74468012169
S11344F0A1400B43E5E722F4F14222F02C0292B2F0
S11345002BB110B4012B07D05DF8044B704742EA7D
S11345100142C0F88020704742EA0142C0F884207A
S1134520F2E7120402F470222BB110B4012B06D06E
S11345305DF8044B70470A43C0F8882070470A436B
S1134540C0F88C20F4E700002DE9F04F83B08379A4
S1134550012B07D0EBB1022B15D001274FF0000B34
S11345605E4604E0204B1E7B022740F2031B00231F
S11345700B70002E2FD091460C4680469A461A4D59
S1134580CDF804B011E0184B1E7B01274FF4827B59
S1134590EDE7154B1E7B022740F2031BE7E7237868
S11345A00133DBB223709E4219D9AA6852F8233032
S11345B0002BF4D01A79BA42F1D01A6899684046AF
S11345C090470028EBD023786B73B9F1010F05D124
S11345D0DDF804A0E3E74FF0000A00E0DA465046B5
S11345E003B0BDE8F08F00BF8801002010B5094C6E
S11345F0206021710021A17332B11146A16023739F
S1134600637300F0FBF810BD024B00229A601A732A
S11346105A73F6E78801002008B5044B00221A609B
S11346201A719A601A7300F02DF908BD88010020F0
S1134630044B9A7B0270587B1B7BC01A18BF012065
S1134640704700BF88010020054B1A68997B52F817
S113465021200260587B1B7BC01A18BF01207047C1
S113466088010020014B587B704700BF880100205F
S1134670054B5A7B1B7B934283BF034B9B6853F8C8
S113468022000020704700BF88010020F0B585B0EB
S113469006460C4600238DF80F301B4B1A6852F85F
S11346A020701A7B5A738DF809108DF80800019751
S11346B001238DF80A300A460DF10F0101A8FFF716
S11346C043FF012C01D0054688B9384600F0EEF8C6
S11346D0054660B90C4B9E7302238DF80A30012203
S11346E00DF10F0101A8FFF72FFF054608E0002395
S11346F08DF80A3001220DF10F0101A8FFF724FF04
S1134700284605B0F0BD00BF88010020124BD3F845
S1134710003623F00103114A12780AB143F0010371
S11347200D4AC2F80036D2F8003323F001030B4AD5
S113473052780AB143F00103074AC2F80033D2F8B1
S1134740003123F00103054A92780AB143F00103D2
S1134750014AC2F80031704700400640480000207A
S1134760094BD3F8002622F00102C3F80026D3F83F
S1134770002122F00102C3F80021D3F8002322F023
S11347800102C3F8002370470040064000B583B01F
S113479001460020FDF7DCF9034618B9184603B0BA
S11347A05DF804FB05238DF800300123ADF80230D9
S11347B00223ADF80430ADF8063069460020FDF759
S11347C0C7F9031C18BF0123E8E70378042B13D0AF
S11347D000B583B004238DF800300123ADF8023016
S11347E00223ADF80430ADF8063069460020FDF729
S11347F0AFF903B05DF804FB0020704710B582B038
S113480000238DF805308DF804301A4B1A79CAB19B
S11348101868031F013AD2B200EB8200012406E0BB
S11348201278022A0BD0052A09D083420AD053F801
S1134830042F11780029F3D18DF80540F0E78DF8A5
S11348400440F2E701A90C4800F05EFA0B4AD2F8E2
S113485000160B4B01F001011970D2F8001301F09E
S113486001015970D2F8002102F001029A7000206F
S113487002B010BD8801002000E00740004006405F
S11348804800002000207047074B5B69DBB2042B13
S113489006D0802B06D0012B0CBF012006207047C8
S11348A0022070470020704700E0074030B583B015
S11348B00378022B16D90546AF4A5269D2B2042AAC
S11348C000F09F80082A00F0F080012A00F0458162
S11348D0032B05D3042B40F2F280052B00F0A180BA
S11348E0042412E1A44A5269D2B2042A00F0C88016
S11348F00FD9102A00F03D81802A11D0082A00F037
S11349003681FF22012B2DD09BB1022B46D00424EB
S1134910FBE0012A00F00081022AF2D10222F1E731
S1134920012B1BD00BB90024EFE0022B33D004245D
S1134930EBE002A9012301F8043D8F4800F08BF954
S11349400446002840F0E180EAE002A9002301F8CF
S1134950043D894800F07FF90446D6E0802392E0C4
S1134960012390E002A9012301F8043D824800F0EC
S113497072F90446002840F0C88087E0FFF7C6FEBD
S11349807E48FFF703FF0446002840F0BE80002263
S11349907B4BDA70B9E0802200E00422042A2ED096
S11349A0754B5B69DBB2012B0AD002A9012301F824
S11349B0043D714800F04FF90446002840F0A580FA
S11349C06F4BDB78BBB16D48FFF7FFFE0446002850
S11349D040F09B8001226A4BDA7002AC022304F897
S11349E0043DFFF7BDFE2146634800F034F9044658
S11349F08BE00122D2E76148FDF732F9E3E70024B6
S1134A0083E0032B3AD3042B07D9052B36D1FFF7C8
S1134A103BFF012813D000240DE004234BE00123C5
S1134A2049E002A9012301F8043D534800F013F9B9
S1134A3004460028EBD005238DF8043050E0504B99
S1134A40DB7873B14D48FFF7C0FE04460028F2D16D
S1134A5001224B4BDA7005238DF80430FFF780FEFA
S1134A60E9E74648FDF7FCF8ECE74FF0E022D2F81E
S1134A70103D23F00203C2F8103D3DE0042444E05D
S1134A80012B0AD10423012B7FF46CAF3C4BDB7860
S1134A90002B7FF473AF002437E0002B3FF449AFC1
S1134AA0022B3FF47AAF04242FE0032B32D3042BE0
S1134AB098BF08232CD8012B08BF002407D002A9D3
S1134AC0012301F8043D2C4800F0C5F804462B7876
S1134AD08DF80430032B0CBF012302238DF805301D
S1134AE09CB96B78002BC0D04FF0E022D2F8103D77
S1134AF043F00203C2F8103D01A91F4800F0ABF8CF
S1134B00041E40F2011318BF1C46204603B030BDFA
S1134B10052B86D00424F8E7012B3FF421AFBBB961
S1134B20174BDB78002B3FF410AFFFF7EFFD134872
S1134B30FFF72CFE04460028E7D10023104AD37067
S1134B4002A901F8043D0C4800F085F80446DCE7AE
S1134B50022B3FF44EAF0424D7E7032B05D3042BD9
S1134B607FF65DAF052B3FF452AF0424CDE7082256
S1134B70C8E61022C6E600BF00E007404C00002053
S1134B8048000020806801390C2929D8DFE801F0A9
S1134B90070A0D28101316191C1F22282500C0F31C
S1134BA040007047C0F380007047C0F3C0007047F6
S1134BB0C0F340107047C0F380107047C0F3C010BA
S1134BC07047C0F300207047C0F340207047C0F323
S1134BD080207047C0F3C0207047C0F34030704756
S1134BE0002070472DE9F04314466AB300224FF0C9
S1134BF004094FF0FF084FF0100E4FF0800C082707
S1134C000126022509E0012B1CD0022B10D12B46D2
S1134C1099421AD00132944217D04369DBB2042B73
S1134C2008D0F0D9102B09D0802B09D0082B03D041
S1134C304346EDE74B46EBE73B46E9E77346E7E7D8
S1134C406346E5E73346E3E70022944294BF00203D
S1134C500120BDE8F08308B50B78052B52D8DFE8B6
S1134C6003F0230312323232C36823F06003C360BB
S1134C704FF47A720121FFF7B5FF002840F20110CA
S1134C8018BF002008BDC36823F0600343F040034D
S1134C90C3604FF47A720421FFF7A4FF002840F2A6
S1134CA0011018BF002008BDC36843F06003C3604F
S1134CB04FF47A728021FFF795FF002840F201102B
S1134CC018BF002008BD033BDBB2012B10D902231F
S1134CD0C26822F007021343C3604FF0E022D2F807
S1134CE0103D43F00403C2F8103D30BF002008BD5E
S1134CF0026922F0C0024B789B01DBB213430361CB
S1134D000023E5E7042008BD0B78002B0CBF00232B
S1134D1020234A780AB143F0800383607047806897
S1134D2021B1012905D1C0F340107047C0F3C01070
S1134D30704700207047000030B5A5B006AD78225A
S1134D400021284600F0CAFF01248DF818408DF890
S1134D5019408DF81A408DF81B408DF81D408DF8D0
S1134D6020408DF821408DF824408DF82640314BA9
S1134D700A938DF82D4003238DF82F308DF83040A1
S1134D808DF831408DF8354004228DF83A208DF8A5
S1134D903C408DF83D308DF840408DF848408DF80A
S1134DA04C308DF84D408DF84E308DF84F40062232
S1134DB08DF851208DF852308DF8544002218DF831
S1134DC055108DF856308DF857408DF859208DF8D0
S1134DD05B408DF85C408DF860408DF861408DF843
S1134DE063408DF864408DF88C408DF88D400595B6
S1134DF0002524AA42F8805D2B46214605A8FDF72C
S1134E00B3F829462846FDF7BDF88DF80C408DF817
S1134E100D5003AB029324AA42F88C5D2B46214625
S1134E2002A8FFF7E3FB29462846FFF72FFC25B02D
S1134E3030BD00BF00127A00013820F07F40034BE0
S1134E40586000229A6007221A60704710E000E060
S1134E50264B274A9A4208D013462448254A13F879
S1134E60011B02F8011B9842F9D1234B234A9A42B1
S1134E7008D013462048224A13F8011B02F8011BEC
S1134E808342F9D11F4B204A9A4206D0134600218F
S1134E901C4A03F8011B9342FBD11C4B1C4A9A4247
S1134EA008D0134619481B4A13F8011B02F8011BCA
S1134EB08342F9D1184B194A9A4212D010B4184CB3
S1134EC0A40808D01946002351F8040B42F8040B37
S1134ED00133A342F8D1134B104A1A605DF8044B16
S1134EE07047104B0C4A1A60704700BFD065000031
S1134EF06C6000000094FF1FD0650000D0650000C6
S1134F006499FF1FEC01002000000020D065000020
S1134F10D065000000000020000000000090FF1F8A
S1134F200004000008ED00E04FF0E023D3F8882DE2
S1134F3042F47002C3F8882DD3F8342F22F0804253
S1134F40C3F8342F054B064A5A605A6842F22012BD
S1134F501A604FF6FF729A60704700BF0020054048
S1134F6020C528D91B4B1A691B69C3F30363013B92
S1134F70052B2ED8DFE803F025030D2D2D12154B3C
S1134F80D3F8083203F00103002B134918BF0B4672
S1134F9018E0104BD3F80833104B13E00D4BD3F843
S1134FA00816D3F80836C3F3044303F110000A4B80
S1134FB003FB00F3C1F3022101314900B3FBF1F318
S1134FC000E0054BC2F303420132B3FBF2F3044A9F
S1134FD0136070470040064000127A00006CDC0247
S1134FE04495FF1F4FF0E021D1F80C2D92B2024BF3
S1134FF01343C1F80C3D70470400FA05114B5B7B69
S113500043B9104A937BB3FA83F35B09D373012347
S1135010537306E00133DBB2012B0CD90022094B98
S11350205A73084B9B7B0133DBB2132B06D9002246
S1135030044B9A737047034A5373F2E7014A93731C
S1135040704700BFDC010020054A537BB3FA83F3A9
S11350505B094370937BB3FA83F35B0983707047F6
S1135060DC01002008B5FFF7C9FF08BD70B52DEDC0
S1135070028B82B001230193002100914FF48043FD
S11350800A460320FEF70CF8C14BDB7B1BB1C14B76
S11350905A69C14B1A60BE4B5B68BE4AD4691C1B7B
S11350A0D361BE4B5B689DB2BB498B81138CEB1AF9
S11350B01BB207EE903AF8EEE77A9FEDB97A67EE05
S11350C0877A92ED027A77EE877AC2ED027AF0EE71
S11350D0E77A9FEDB47AF4EEC77AF1EE10FA4CBF9A
S11350E000232D2308EE903AF8EEE88AD2ED037AF5
S11350F078EEE77AB1EE0E8A67EE887A92ED048A4A
S11351009FEDA97A28EE078A37EEC88A0B4691EDFF
S1135110007ADFEDA67A77EEC77A77EEC87A9FED4C
S1135120A47A67EE877AB6EE007A77EE877A9FEDF7
S1135130A17AF4EEC77AF1EE10FA40F3518183EDCF
S1135140027A954ED6ED027A9FED9B7A67EE877AC6
S1135150FCEEE77A012301930020009017EE903AC9
S11351609BB202460146FDF79BFFB38903F001039E
S1135170B373002B00F0438101219048FFF745F9F8
S1135180854A938903F00203002B14BF01230023F3
S1135190D37300F0398102218848FFF736F97E4A3B
S11351A0938903F48063002B14BF01230023137439
S11351B000F02F814FF480618048FFF726F9764A8A
S11351C0938903F40063002B14BF01230023537459
S11351D000F025814FF400617848FFF716F96E4A14
S11351E0938903F48053002B14BF01230023937489
S11351F000F01B814FF480517048FFF706F9664AAE
S1135200938903F40053002B14BF01230023D374A8
S113521000F011814FF400516848FFF7F6F85E4A38
S1135220938903F48043002B14BF012300231375D7
S113523000F007814FF480416048FFF7E6F8564AD2
S1135240B2F90C30D90F5175002B80F200814FF464
S113525000415A48FFF7D9F84F4A938903F00403F1
S1135260002B14BF01230023937500F0F680042162
S11352705248FFF7CAF8484A938903F00803002B01
S113528014BF01230023D37500F0EC8008214B48A0
S1135290FFF7BBF8404A938903F01003002B14BFB7
S11352A001230023137600F0E28010214348FFF726
S11352B0ACF8394A938903F02003002B14BF01236F
S11352C00023537600F0D88020213C48FFF79DF856
S11352D0314A938903F04003002B14BF01230023B8
S11352E0937600F0CE8040213448FFF78EF82A4AA6
S11352F0938903F08003002B14BF01230023D3768A
S113530000F0C48080212D48FFF77FF8224A93895A
S113531003F48073002B14BF01230023137700F0E0
S1135320BA804FF480712548FFF76FF81A4A9389C1
S113533003F40073002B14BF01230023537700F000
S1135340B0804FF400711D48FFF75FF8114B1D84C6
S113535007EE904AF8EE677A9FED197A67EE877A3E
S1135360D3ED046A27EEA66A93ED037A37EE067A44
S113537083ED037A9FED137A28EE078A28EE278AB5
S113538038EE268A83ED048A014BDB7B1CE000BFE8
S1135390DC01002098010020BC01002000A0034093
S11353A0EC51B83D000034428FC2753C000000004F
S11353B0A5C7A5395C8F423F00000047C0F00F40ED
S11353C06F12033B5555054413B1394BC3ED018AA4
S11353D0384A53680133536002B0BDEC028B70BD90
S11353E09FED357AF4EEC77AF1EE10FA03D4304B20
S11353F0C3ED027AA5E6314A2D4B9A60A1E601215C
S11354002F48FFF704F8BBE602212D48FEF7FFFF03
S1135410C5E64FF480612A48FEF7F9FFCFE64FF462
S113542000612748FEF7F3FFD9E64FF48051244882
S1135430FEF7EDFFE3E64FF400512148FEF7E7FFE6
S1135440EDE64FF480411E48FEF7E1FFF7E64FF426
S113545000411B48FEF7DBFFFEE604211848FEF777
S1135460D6FF08E708211648FEF7D1FF12E71021FE
S11354701348FEF7CCFF1CE720211148FEF7C7FFB5
S113548026E740210E48FEF7C2FF30E780210C4892
S1135490FEF7BDFF3AE74FF480710948FEF7B7FF06
S11354A044E74FF400710648FEF7B1FF4EE700BF32
S11354B0BC010020DC0100208FC2753E8FC2753E06
S11354C0C0F00F401A4881681A4A9369CB1A07EE54
S11354D0103A916192ED005A92ED016A164BD3EDA8
S11354E0017A77EEC57AF1EE0E6A67EEA67ADFED01
S11354F0135A66EE255A77EEE57AB8EE477ADFED71
S1135500106A27EE267A66EE076A76EE856AC2EDA1
S1135510006ADFED0C6A67EEA66A26EE877A37EE3C
S1135520067A82ED017AC2ED057A01318160704715
S1135530DC01002098010020BC0100209A99193E4A
S11355400AD7A33CABAAAA4008B5012806D0022872
S113555007D000B108BDFFF751FD08BDFFF786FD78
S113556008BDFFF7AFFFF5E72DE9F04F87B0DFF88F
S11355705C930025C9F80050C9F80450C9F80850D4
S1135580C9F80C5020222946C44800F0A7FBDFF8D4
S113559040A324222946504600F0A0FBC04EB6F892
S11355A05C40A40004F1804404F5CA24236843F059
S11355B080432360BB4F3B6A23F4E06343F40073EE
S11355C03B62B6F87E30DFF80C834FF08C4B48F822
S11355D023B09B0003F1804303F5CA231A6842F009
S11355E080421A60B04AB1490320FDF76FF8B04910
S11355F00320FDF7D7FD2A460121AE48FDF71FF928
S1135600B6F85A309B0003F1804303F5CA231A68A5
S113561042F080421A60A8494A6B22F4E06242F4E4
S1135620C0624A631A6842F080421A600B6B23F42A
S1135630E06343F4C0630B630095019502954FF654
S1135640FF73ADF8043069460220FEF731F9236890
S113565043F0804323603B6B23F4E06343F4007323
S11356603B63B6F8783048F823B09B0003F18043DD
S113567003F5CA231A6842F080421A608F4A90499F
S11356802846FDF723F88F492846FDF78BFD2A4667
S113569001218D48FDF7D3F8B6F86060B60006F135
S11356A0804606F5CA26336843F08043336001958B
S11356B0029503950595A8F5C838CDF80080012416
S11356C08DF80B408DF80E4007F53527C037049749
S11356D08DF8144069462046FEF7F6FD336843F022
S11356E080433360029503950595CDF800800194BD
S11356F08DF80B408DF80E4004978DF814406946E0
S11357002046FEF7E1FD336843F0804333600295A1
S113571003950595CDF800800A2301938DF80B407D
S11357208DF80E4004978DF8144069462046FEF724
S1135730CBFD336843F080433360029503950595B0
S1135740CDF800800B2301938DF80B408DF80E40AB
S113575004978DF8144069462046FEF7B5FD33687A
S113576043F080433360029503950595CDF800809E
S11357700C2301938DF80B408DF80E4004978DF89F
S1135780144069462046FEF79FFD336843F080438A
S11357903360029503950595CDF800800D230193A0
S11357A08DF80B408DF80E4004978DF8144069462F
S11357B02046FEF789FD336843F080433360029549
S11357C003950595CDF800800E2301938DF80B40C9
S11357D08DF80E4004978DF8144069462046FEF774
S11357E073FD336843F08043336002950395059558
S11357F0CDF800800F2301938DF80B408DF80E40F7
S113580004978DF8144069462046FEF75DFD336821
S113581043F080433360029503950595CDF80080ED
S1135820022301938DF80B408DF80E4004978DF8F8
S1135830144069462046FEF747FD336843F0804331
S11358403360029503950595CDF8008003230193F9
S11358508DF80B408DF80E4004978DF8144069467E
S11358602046FEF731FD336843F0804333600295F0
S113587003950595CDF80080042301938DF80B4022
S11358808DF80E4004978DF8144069462046FEF7C3
S11358901BFD336843F0804333601DE0BC010020EE
S11358A0C85E000000A00440C8000020E894FF1F68
S11358B0FC94FF1F00600240009004406800002038
S11358C0A094FF1FB494FF1F00800340DC0100205C
S11358D09801002000500640029503950595CDF8E7
S11358E00080052301938DF80B408DF80E4004973A
S11358F08DF8144069462046FEF7E6FC336843F011
S113590080433360029503950595CDF80080062306
S113591001938DF80B408DF80E4004978DF81440D8
S113592069462046FEF7D0FC336843F08043336079
S1135930029503950595CDF80080072301938DF812
S11359400B408DF80E4004978DF8144069462046AC
S1135950FEF7BAFC336843F0804333600295039545
S11359600595CDF80080082301938DF80B408DF840
S11359700E4004978DF8144069462046FEF7A4FCB7
S1135980336843F080433360029503950595CDF861
S11359900080092301938DF80B408DF80E40049785
S11359A08DF8144069462046FEF78EFCD9F8043081
S11359B0CAF81C30D9F80830CAF8183007B0BDE866
S11359C0F08F704753B94AB9002908BF00281CBF9B
S11359D04FF0FF314FF0FF3000F07EB9ADF1080C0D
S11359E06DE904CE00F006F8DDF804E0DDE90223F9
S11359F004B070472DE9F047089D04468E46002BFD
S1135A004ED18A4294466DD9B2FA82F757B1C7F1A2
S1135A10200EB94020FA0EFE02FA07FC4EEA010EEF
S1135A2000FA07F44FEA1C49210CBEFBF9F61FFAF1
S1135A308CF809FB16EE41EA0E4106FB08F38B4293
S1135A400AD91CEB010106F1FF3280F027818B4259
S1135A5040F22481023E6144C91AA4B2B1FBF9F0B8
S1135A6009FB101144EA014400FB08F8A0450AD9D7
S1135A701CEB040400F1FF3380F00E81A04540F2DA
S1135A800B810238644440EA0640A4EB0804002673
S1135A907DB1FC4000232C606B603146BDE8F0878B
S1135AA08B4209D9002D00F01481002685E80300FB
S1135AB030463146BDE8F087B3FA83F6002E40F055
S1135AC090808B4202D3824200F2FD80841A61EB03
S1135AD0030101208E46002DEBD085E810403146AD
S1135AE0BDE8F0871AB94FF0010CBCFBF2FCBCFA1C
S1135AF08CF7A7BBA1EB0C034FEA1C421FFA8CF8EE
S1135B000126B3FBF2FE210C02FB1E3341EA0341E2
S1135B1008FB0EF38B4208D91CEB01010EF1FF3098
S1135B2002D28B4200F2D1808646C91AA3B2B1FBDD
S1135B30F2F002FB101143EA014408FB00F8A0450F
S1135B4008D91CEB040400F1FF3302D2A04500F293
S1135B50B7801846A4EB080440EA0E4098E7C7F162
S1135B60200301FA07F40CFA07FC20FA03FED940DB
S1135B704FEA1C424EEA040EB1FBF2F64FEA1E4312
S1135B8002FB16111FFA8CF843EA014306FB08F1E5
S1135B90994200FA07F40AD91CEB030306F1FF301B
S1135BA080F08C80994240F28980023E63445B1A03
S1135BB01FFA8EF1B3FBF2F002FB103341EA03410A
S1135BC000FB08F38B4208D91CEB010100F1FF3EF6
S1135BD070D28B426ED902386144CB1A40EA064631
S1135BE08FE7C6F1200722FA07F8B34001FA06F45A
S1135BF048EA030320FA07FC4FEA134EF9404CEA43
S1135C00040CB1FBFEF94FEA1C440EFB19111FFAF8
S1135C1083F844EA014109FB08F48C4202FA06F2D3
S1135C2000FA06FA08D9591809F1FF3044D28C4217
S1135C3042D9A9F102091944091B1FFA8CFCB1FBD2
S1135C40FEF00EFB10114CEA014400FB08F8A045DD
S1135C5007D91C1900F1FF312AD2A04528D90238EE
S1135C601C4440EA0940A4EB0804A0FB02894C450B
S1135C70C446494616D313D055B1BAEB0C0364EBB2
S1135C80010404FA07F7F3401F43F4402F606C60EB
S1135C9000263146BDE8F0871846F4E61646DBE6F2
S1135CA0C245E9D2B8EB020C69EB03010138E3E722
S1135CB00846D6E7704690E78146BDE7064676E794
S1135CC00238644446E7304605E7AEF1020E61440B
S1135CD02BE72E462846ECE6704700BF02440346F5
